{
  "_format": "hh3-artifact-1",
  "contractName": "OneCurrency",
  "sourceName": "contracts/OneCurrency.sol",
  "abi": [
    {
      "inputs": [
        {
          "internalType": "address",
          "name": "defaultAdmin",
          "type": "address"
        },
        {
          "internalType": "uint256",
          "name": "maxSupply",
          "type": "uint256"
        }
      ],
      "stateMutability": "nonpayable",
      "type": "constructor"
    },
    {
      "inputs": [],
      "name": "AccessControlBadConfirmation",
      "type": "error"
    },
    {
      "inputs": [
        {
          "internalType": "address",
          "name": "account",
          "type": "address"
        },
        {
          "internalType": "bytes32",
          "name": "neededRole",
          "type": "bytes32"
        }
      ],
      "name": "AccessControlUnauthorizedAccount",
      "type": "error"
    },
    {
      "inputs": [
        {
          "internalType": "address",
          "name": "account",
          "type": "address"
        }
      ],
      "name": "BlacklistedAccount",
      "type": "error"
    },
    {
      "inputs": [],
      "name": "ECDSAInvalidSignature",
      "type": "error"
    },
    {
      "inputs": [
        {
          "internalType": "uint256",
          "name": "length",
          "type": "uint256"
        }
      ],
      "name": "ECDSAInvalidSignatureLength",
      "type": "error"
    },
    {
      "inputs": [
        {
          "internalType": "bytes32",
          "name": "s",
          "type": "bytes32"
        }
      ],
      "name": "ECDSAInvalidSignatureS",
      "type": "error"
    },
    {
      "inputs": [
        {
          "internalType": "address",
          "name": "spender",
          "type": "address"
        },
        {
          "internalType": "uint256",
          "name": "allowance",
          "type": "uint256"
        },
        {
          "internalType": "uint256",
          "name": "needed",
          "type": "uint256"
        }
      ],
      "name": "ERC20InsufficientAllowance",
      "type": "error"
    },
    {
      "inputs": [
        {
          "internalType": "address",
          "name": "sender",
          "type": "address"
        },
        {
          "internalType": "uint256",
          "name": "balance",
          "type": "uint256"
        },
        {
          "internalType": "uint256",
          "name": "needed",
          "type": "uint256"
        }
      ],
      "name": "ERC20InsufficientBalance",
      "type": "error"
    },
    {
      "inputs": [
        {
          "internalType": "address",
          "name": "approver",
          "type": "address"
        }
      ],
      "name": "ERC20InvalidApprover",
      "type": "error"
    },
    {
      "inputs": [
        {
          "internalType": "address",
          "name": "receiver",
          "type": "address"
        }
      ],
      "name": "ERC20InvalidReceiver",
      "type": "error"
    },
    {
      "inputs": [
        {
          "internalType": "address",
          "name": "sender",
          "type": "address"
        }
      ],
      "name": "ERC20InvalidSender",
      "type": "error"
    },
    {
      "inputs": [
        {
          "internalType": "address",
          "name": "spender",
          "type": "address"
        }
      ],
      "name": "ERC20InvalidSpender",
      "type": "error"
    },
    {
      "inputs": [
        {
          "internalType": "uint256",
          "name": "deadline",
          "type": "uint256"
        }
      ],
      "name": "ERC2612ExpiredSignature",
      "type": "error"
    },
    {
      "inputs": [
        {
          "internalType": "address",
          "name": "signer",
          "type": "address"
        },
        {
          "internalType": "address",
          "name": "owner",
          "type": "address"
        }
      ],
      "name": "ERC2612InvalidSigner",
      "type": "error"
    },
    {
      "inputs": [],
      "name": "EnforcedPause",
      "type": "error"
    },
    {
      "inputs": [
        {
          "internalType": "uint256",
          "name": "requested",
          "type": "uint256"
        },
        {
          "internalType": "uint256",
          "name": "available",
          "type": "uint256"
        }
      ],
      "name": "ExceedsMaxSupply",
      "type": "error"
    },
    {
      "inputs": [],
      "name": "ExpectedPause",
      "type": "error"
    },
    {
      "inputs": [
        {
          "internalType": "address",
          "name": "account",
          "type": "address"
        },
        {
          "internalType": "uint256",
          "name": "currentNonce",
          "type": "uint256"
        }
      ],
      "name": "InvalidAccountNonce",
      "type": "error"
    },
    {
      "inputs": [],
      "name": "InvalidShortString",
      "type": "error"
    },
    {
      "inputs": [
        {
          "internalType": "string",
          "name": "str",
          "type": "string"
        }
      ],
      "name": "StringTooLong",
      "type": "error"
    },
    {
      "inputs": [],
      "name": "ZeroAddress",
      "type": "error"
    },
    {
      "inputs": [],
      "name": "ZeroAmount",
      "type": "error"
    },
    {
      "anonymous": false,
      "inputs": [
        {
          "indexed": true,
          "internalType": "address",
          "name": "account",
          "type": "address"
        }
      ],
      "name": "AccountBlacklisted",
      "type": "event"
    },
    {
      "anonymous": false,
      "inputs": [
        {
          "indexed": true,
          "internalType": "address",
          "name": "account",
          "type": "address"
        }
      ],
      "name": "AccountUnblacklisted",
      "type": "event"
    },
    {
      "anonymous": false,
      "inputs": [
        {
          "indexed": true,
          "internalType": "address",
          "name": "owner",
          "type": "address"
        },
        {
          "indexed": true,
          "internalType": "address",
          "name": "spender",
          "type": "address"
        },
        {
          "indexed": false,
          "internalType": "uint256",
          "name": "value",
          "type": "uint256"
        }
      ],
      "name": "Approval",
      "type": "event"
    },
    {
      "anonymous": false,
      "inputs": [],
      "name": "EIP712DomainChanged",
      "type": "event"
    },
    {
      "anonymous": false,
      "inputs": [
        {
          "indexed": false,
          "internalType": "address",
          "name": "account",
          "type": "address"
        }
      ],
      "name": "Paused",
      "type": "event"
    },
    {
      "anonymous": false,
      "inputs": [
        {
          "indexed": true,
          "internalType": "bytes32",
          "name": "role",
          "type": "bytes32"
        },
        {
          "indexed": true,
          "internalType": "bytes32",
          "name": "previousAdminRole",
          "type": "bytes32"
        },
        {
          "indexed": true,
          "internalType": "bytes32",
          "name": "newAdminRole",
          "type": "bytes32"
        }
      ],
      "name": "RoleAdminChanged",
      "type": "event"
    },
    {
      "anonymous": false,
      "inputs": [
        {
          "indexed": true,
          "internalType": "bytes32",
          "name": "role",
          "type": "bytes32"
        },
        {
          "indexed": true,
          "internalType": "address",
          "name": "account",
          "type": "address"
        },
        {
          "indexed": true,
          "internalType": "address",
          "name": "sender",
          "type": "address"
        }
      ],
      "name": "RoleGranted",
      "type": "event"
    },
    {
      "anonymous": false,
      "inputs": [
        {
          "indexed": true,
          "internalType": "bytes32",
          "name": "role",
          "type": "bytes32"
        },
        {
          "indexed": true,
          "internalType": "address",
          "name": "account",
          "type": "address"
        },
        {
          "indexed": true,
          "internalType": "address",
          "name": "sender",
          "type": "address"
        }
      ],
      "name": "RoleRevoked",
      "type": "event"
    },
    {
      "anonymous": false,
      "inputs": [
        {
          "indexed": true,
          "internalType": "address",
          "name": "minter",
          "type": "address"
        },
        {
          "indexed": true,
          "internalType": "address",
          "name": "to",
          "type": "address"
        },
        {
          "indexed": false,
          "internalType": "uint256",
          "name": "amount",
          "type": "uint256"
        },
        {
          "indexed": false,
          "internalType": "uint256",
          "name": "newTotalSupply",
          "type": "uint256"
        }
      ],
      "name": "TokensMinted",
      "type": "event"
    },
    {
      "anonymous": false,
      "inputs": [
        {
          "indexed": true,
          "internalType": "address",
          "name": "from",
          "type": "address"
        },
        {
          "indexed": true,
          "internalType": "address",
          "name": "to",
          "type": "address"
        },
        {
          "indexed": false,
          "internalType": "uint256",
          "name": "amount",
          "type": "uint256"
        }
      ],
      "name": "TokensSeized",
      "type": "event"
    },
    {
      "anonymous": false,
      "inputs": [
        {
          "indexed": true,
          "internalType": "address",
          "name": "from",
          "type": "address"
        },
        {
          "indexed": true,
          "internalType": "address",
          "name": "to",
          "type": "address"
        },
        {
          "indexed": false,
          "internalType": "uint256",
          "name": "value",
          "type": "uint256"
        }
      ],
      "name": "Transfer",
      "type": "event"
    },
    {
      "anonymous": false,
      "inputs": [
        {
          "indexed": false,
          "internalType": "address",
          "name": "account",
          "type": "address"
        }
      ],
      "name": "Unpaused",
      "type": "event"
    },
    {
      "inputs": [],
      "name": "BLACKLIST_ROLE",
      "outputs": [
        {
          "internalType": "bytes32",
          "name": "",
          "type": "bytes32"
        }
      ],
      "stateMutability": "view",
      "type": "function"
    },
    {
      "inputs": [],
      "name": "DEFAULT_ADMIN_ROLE",
      "outputs": [
        {
          "internalType": "bytes32",
          "name": "",
          "type": "bytes32"
        }
      ],
      "stateMutability": "view",
      "type": "function"
    },
    {
      "inputs": [],
      "name": "DOMAIN_SEPARATOR",
      "outputs": [
        {
          "internalType": "bytes32",
          "name": "",
          "type": "bytes32"
        }
      ],
      "stateMutability": "view",
      "type": "function"
    },
    {
      "inputs": [],
      "name": "MAX_SUPPLY",
      "outputs": [
        {
          "internalType": "uint256",
          "name": "",
          "type": "uint256"
        }
      ],
      "stateMutability": "view",
      "type": "function"
    },
    {
      "inputs": [],
      "name": "MINTER_ROLE",
      "outputs": [
        {
          "internalType": "bytes32",
          "name": "",
          "type": "bytes32"
        }
      ],
      "stateMutability": "view",
      "type": "function"
    },
    {
      "inputs": [],
      "name": "PAUSER_ROLE",
      "outputs": [
        {
          "internalType": "bytes32",
          "name": "",
          "type": "bytes32"
        }
      ],
      "stateMutability": "view",
      "type": "function"
    },
    {
      "inputs": [],
      "name": "SEIZE_ROLE",
      "outputs": [
        {
          "internalType": "bytes32",
          "name": "",
          "type": "bytes32"
        }
      ],
      "stateMutability": "view",
      "type": "function"
    },
    {
      "inputs": [
        {
          "internalType": "address",
          "name": "owner",
          "type": "address"
        },
        {
          "internalType": "address",
          "name": "spender",
          "type": "address"
        }
      ],
      "name": "allowance",
      "outputs": [
        {
          "internalType": "uint256",
          "name": "",
          "type": "uint256"
        }
      ],
      "stateMutability": "view",
      "type": "function"
    },
    {
      "inputs": [
        {
          "internalType": "address",
          "name": "spender",
          "type": "address"
        },
        {
          "internalType": "uint256",
          "name": "value",
          "type": "uint256"
        }
      ],
      "name": "approve",
      "outputs": [
        {
          "internalType": "bool",
          "name": "",
          "type": "bool"
        }
      ],
      "stateMutability": "nonpayable",
      "type": "function"
    },
    {
      "inputs": [
        {
          "internalType": "address",
          "name": "account",
          "type": "address"
        }
      ],
      "name": "balanceOf",
      "outputs": [
        {
          "internalType": "uint256",
          "name": "",
          "type": "uint256"
        }
      ],
      "stateMutability": "view",
      "type": "function"
    },
    {
      "inputs": [
        {
          "internalType": "address",
          "name": "account",
          "type": "address"
        }
      ],
      "name": "blacklistAccount",
      "outputs": [],
      "stateMutability": "nonpayable",
      "type": "function"
    },
    {
      "inputs": [
        {
          "internalType": "uint256",
          "name": "value",
          "type": "uint256"
        }
      ],
      "name": "burn",
      "outputs": [],
      "stateMutability": "nonpayable",
      "type": "function"
    },
    {
      "inputs": [
        {
          "internalType": "address",
          "name": "account",
          "type": "address"
        },
        {
          "internalType": "uint256",
          "name": "value",
          "type": "uint256"
        }
      ],
      "name": "burnFrom",
      "outputs": [],
      "stateMutability": "nonpayable",
      "type": "function"
    },
    {
      "inputs": [],
      "name": "decimals",
      "outputs": [
        {
          "internalType": "uint8",
          "name": "",
          "type": "uint8"
        }
      ],
      "stateMutability": "view",
      "type": "function"
    },
    {
      "inputs": [],
      "name": "eip712Domain",
      "outputs": [
        {
          "internalType": "bytes1",
          "name": "fields",
          "type": "bytes1"
        },
        {
          "internalType": "string",
          "name": "name",
          "type": "string"
        },
        {
          "internalType": "string",
          "name": "version",
          "type": "string"
        },
        {
          "internalType": "uint256",
          "name": "chainId",
          "type": "uint256"
        },
        {
          "internalType": "address",
          "name": "verifyingContract",
          "type": "address"
        },
        {
          "internalType": "bytes32",
          "name": "salt",
          "type": "bytes32"
        },
        {
          "internalType": "uint256[]",
          "name": "extensions",
          "type": "uint256[]"
        }
      ],
      "stateMutability": "view",
      "type": "function"
    },
    {
      "inputs": [
        {
          "internalType": "bytes32",
          "name": "role",
          "type": "bytes32"
        }
      ],
      "name": "getRoleAdmin",
      "outputs": [
        {
          "internalType": "bytes32",
          "name": "",
          "type": "bytes32"
        }
      ],
      "stateMutability": "view",
      "type": "function"
    },
    {
      "inputs": [
        {
          "internalType": "bytes32",
          "name": "role",
          "type": "bytes32"
        },
        {
          "internalType": "address",
          "name": "account",
          "type": "address"
        }
      ],
      "name": "grantRole",
      "outputs": [],
      "stateMutability": "nonpayable",
      "type": "function"
    },
    {
      "inputs": [
        {
          "internalType": "bytes32",
          "name": "role",
          "type": "bytes32"
        },
        {
          "internalType": "address",
          "name": "account",
          "type": "address"
        }
      ],
      "name": "hasRole",
      "outputs": [
        {
          "internalType": "bool",
          "name": "",
          "type": "bool"
        }
      ],
      "stateMutability": "view",
      "type": "function"
    },
    {
      "inputs": [
        {
          "internalType": "address",
          "name": "account",
          "type": "address"
        }
      ],
      "name": "isBlacklisted",
      "outputs": [
        {
          "internalType": "bool",
          "name": "",
          "type": "bool"
        }
      ],
      "stateMutability": "view",
      "type": "function"
    },
    {
      "inputs": [
        {
          "internalType": "address",
          "name": "to",
          "type": "address"
        },
        {
          "internalType": "uint256",
          "name": "amount",
          "type": "uint256"
        }
      ],
      "name": "mint",
      "outputs": [],
      "stateMutability": "nonpayable",
      "type": "function"
    },
    {
      "inputs": [],
      "name": "name",
      "outputs": [
        {
          "internalType": "string",
          "name": "",
          "type": "string"
        }
      ],
      "stateMutability": "view",
      "type": "function"
    },
    {
      "inputs": [
        {
          "internalType": "address",
          "name": "owner",
          "type": "address"
        }
      ],
      "name": "nonces",
      "outputs": [
        {
          "internalType": "uint256",
          "name": "",
          "type": "uint256"
        }
      ],
      "stateMutability": "view",
      "type": "function"
    },
    {
      "inputs": [],
      "name": "pause",
      "outputs": [],
      "stateMutability": "nonpayable",
      "type": "function"
    },
    {
      "inputs": [],
      "name": "paused",
      "outputs": [
        {
          "internalType": "bool",
          "name": "",
          "type": "bool"
        }
      ],
      "stateMutability": "view",
      "type": "function"
    },
    {
      "inputs": [
        {
          "internalType": "address",
          "name": "owner",
          "type": "address"
        },
        {
          "internalType": "address",
          "name": "spender",
          "type": "address"
        },
        {
          "internalType": "uint256",
          "name": "value",
          "type": "uint256"
        },
        {
          "internalType": "uint256",
          "name": "deadline",
          "type": "uint256"
        },
        {
          "internalType": "uint8",
          "name": "v",
          "type": "uint8"
        },
        {
          "internalType": "bytes32",
          "name": "r",
          "type": "bytes32"
        },
        {
          "internalType": "bytes32",
          "name": "s",
          "type": "bytes32"
        }
      ],
      "name": "permit",
      "outputs": [],
      "stateMutability": "nonpayable",
      "type": "function"
    },
    {
      "inputs": [
        {
          "internalType": "bytes32",
          "name": "role",
          "type": "bytes32"
        },
        {
          "internalType": "address",
          "name": "callerConfirmation",
          "type": "address"
        }
      ],
      "name": "renounceRole",
      "outputs": [],
      "stateMutability": "nonpayable",
      "type": "function"
    },
    {
      "inputs": [
        {
          "internalType": "bytes32",
          "name": "role",
          "type": "bytes32"
        },
        {
          "internalType": "address",
          "name": "account",
          "type": "address"
        }
      ],
      "name": "revokeRole",
      "outputs": [],
      "stateMutability": "nonpayable",
      "type": "function"
    },
    {
      "inputs": [
        {
          "internalType": "address",
          "name": "from",
          "type": "address"
        },
        {
          "internalType": "address",
          "name": "to",
          "type": "address"
        }
      ],
      "name": "seizeTokens",
      "outputs": [],
      "stateMutability": "nonpayable",
      "type": "function"
    },
    {
      "inputs": [
        {
          "internalType": "bytes4",
          "name": "interfaceId",
          "type": "bytes4"
        }
      ],
      "name": "supportsInterface",
      "outputs": [
        {
          "internalType": "bool",
          "name": "",
          "type": "bool"
        }
      ],
      "stateMutability": "view",
      "type": "function"
    },
    {
      "inputs": [],
      "name": "symbol",
      "outputs": [
        {
          "internalType": "string",
          "name": "",
          "type": "string"
        }
      ],
      "stateMutability": "view",
      "type": "function"
    },
    {
      "inputs": [],
      "name": "totalSupply",
      "outputs": [
        {
          "internalType": "uint256",
          "name": "",
          "type": "uint256"
        }
      ],
      "stateMutability": "view",
      "type": "function"
    },
    {
      "inputs": [
        {
          "internalType": "address",
          "name": "to",
          "type": "address"
        },
        {
          "internalType": "uint256",
          "name": "value",
          "type": "uint256"
        }
      ],
      "name": "transfer",
      "outputs": [
        {
          "internalType": "bool",
          "name": "",
          "type": "bool"
        }
      ],
      "stateMutability": "nonpayable",
      "type": "function"
    },
    {
      "inputs": [
        {
          "internalType": "address",
          "name": "from",
          "type": "address"
        },
        {
          "internalType": "address",
          "name": "to",
          "type": "address"
        },
        {
          "internalType": "uint256",
          "name": "value",
          "type": "uint256"
        }
      ],
      "name": "transferFrom",
      "outputs": [
        {
          "internalType": "bool",
          "name": "",
          "type": "bool"
        }
      ],
      "stateMutability": "nonpayable",
      "type": "function"
    },
    {
      "inputs": [
        {
          "internalType": "address",
          "name": "account",
          "type": "address"
        }
      ],
      "name": "unblacklistAccount",
      "outputs": [],
      "stateMutability": "nonpayable",
      "type": "function"
    },
    {
      "inputs": [],
      "name": "unpause",
      "outputs": [],
      "stateMutability": "nonpayable",
      "type": "function"
    }
  ],
  "bytecode": "0x610180604052348015610010575f5ffd5b506040516120f23803806120f283398101604081905261002f916103ad565b6040518060400160405280600b81526020016a4f6e6543757272656e637960a81b81525080604051806040016040528060018152602001603160f81b8152506040518060400160405280600b81526020016a4f6e6543757272656e637960a81b815250604051806040016040528060038152602001624f4e4560e81b81525081600390816100bd919061047c565b5060046100ca828261047c565b506100da9150839050600661028a565b610120526100e981600761028a565b61014052815160208084019190912060e052815190820120610100524660a05261017560e05161010051604080517f8b73c3c69bb8fe3d512ecc4cf759cc79239f7b179b0ffacaa9a75d522b39400f60208201529081019290925260608201524660808201523060a08201525f9060c00160405160208183030381529060405280519060200120905090565b60805250503060c052506001600160a01b0382166101a65760405163d92e233d60e01b815260040160405180910390fd5b805f036101c657604051631f2a200560e01b815260040160405180910390fd5b6101608190526101d65f836102bc565b506102017f9f2df0fed2c77648de5860a4cc508cd0818c85b8b8a1ab4ceeef8d981c8956a6836102bc565b5061022c7f65d7a28e3265b37a6474929f336521b332c1681b933f6cb9f3376673440d862a836102bc565b506102577f22435ed027edf5f902dc0093fbc24cdb50c05b5fd5f311b78c67c1cbaff60e13836102bc565b506102827f3469b8b0d89e9604f8510ed143f74a8336d22955d4f83e23bf53d9414e27f432836102bc565b50505061058e565b5f6020835110156102a55761029e83610367565b90506102b6565b816102b0848261047c565b5060ff90505b92915050565b5f8281526009602090815260408083206001600160a01b038516845290915281205460ff16610360575f8381526009602090815260408083206001600160a01b03861684529091529020805460ff191660011790556103183390565b6001600160a01b0316826001600160a01b0316847f2f8788117e7eff1d82e926ec794901d17c78024a50270940304540a733656f0d60405160405180910390a45060016102b6565b505f6102b6565b5f5f829050601f8151111561039a578260405163305a27a960e01b81526004016103919190610536565b60405180910390fd5b80516103a58261056b565b179392505050565b5f5f604083850312156103be575f5ffd5b82516001600160a01b03811681146103d4575f5ffd5b6020939093015192949293505050565b634e487b7160e01b5f52604160045260245ffd5b600181811c9082168061040c57607f821691505b60208210810361042a57634e487b7160e01b5f52602260045260245ffd5b50919050565b601f82111561047757805f5260205f20601f840160051c810160208510156104555750805b601f840160051c820191505b81811015610474575f8155600101610461565b50505b505050565b81516001600160401b03811115610495576104956103e4565b6104a9816104a384546103f8565b84610430565b6020601f8211600181146104db575f83156104c45750848201515b5f19600385901b1c1916600184901b178455610474565b5f84815260208120601f198516915b8281101561050a57878501518255602094850194600190920191016104ea565b508482101561052757868401515f19600387901b60f8161c191681555b50505050600190811b01905550565b602081525f82518060208401528060208501604085015e5f604082850101526040601f19601f83011684010191505092915050565b8051602080830151919081101561042a575f1960209190910360031b1b16919050565b60805160a05160c05160e05161010051610120516101405161016051611b026105f05f395f81816102f3015261076c01525f6111af01525f61118201525f610fc901525f610fa101525f610efc01525f610f2601525f610f500152611b025ff3fe608060405234801561000f575f5ffd5b5060043610610208575f3560e01c80636d7331ed1161011f578063a9059cbb116100a9578063d539139311610079578063d539139314610482578063d547741f146104a9578063dd62ed3e146104bc578063e63ab1e9146104f4578063fe575a871461051b575f5ffd5b8063a9059cbb14610436578063c0f58dc614610449578063d37b34d71461045c578063d505accf1461046f575f5ffd5b80638456cb59116100ef5780638456cb59146103f157806384b0196e146103f957806391d148541461041457806395d89b4114610427578063a217fddf1461042f575f5ffd5b80636d7331ed1461039057806370a08231146103a357806379cc6790146103cb5780637ecebe00146103de575f5ffd5b8063313ce567116101a05780633c7e9ba5116101705780633c7e9ba5146103305780633f4ba83a1461035757806340c10f191461035f57806342966c68146103725780635c975abb14610385575f5ffd5b8063313ce567146102df57806332cb6b0c146102ee5780633644e5151461031557806336568abe1461031d575f5ffd5b806319afe463116101db57806319afe4631461026e57806323b872dd14610295578063248a9ca3146102a85780632f2ff15d146102ca575f5ffd5b806301ffc9a71461020c57806306fdde0314610234578063095ea7b31461024957806318160ddd1461025c575b5f5ffd5b61021f61021a3660046117d6565b610546565b60405190151581526020015b60405180910390f35b61023c61057c565b60405161022b9190611832565b61021f61025736600461185f565b61060c565b6002545b60405190815260200161022b565b6102607f22435ed027edf5f902dc0093fbc24cdb50c05b5fd5f311b78c67c1cbaff60e1381565b61021f6102a3366004611887565b610623565b6102606102b63660046118c1565b5f9081526009602052604090206001015490565b6102dd6102d83660046118d8565b610646565b005b6040516012815260200161022b565b6102607f000000000000000000000000000000000000000000000000000000000000000081565b610260610670565b6102dd61032b3660046118d8565b61067e565b6102607f3469b8b0d89e9604f8510ed143f74a8336d22955d4f83e23bf53d9414e27f43281565b6102dd6106b6565b6102dd61036d36600461185f565b6106eb565b6102dd6103803660046118c1565b610821565b60055460ff1661021f565b6102dd61039e366004611902565b61082b565b6102606103b1366004611902565b6001600160a01b03165f9081526020819052604090205490565b6102dd6103d936600461185f565b6108c5565b6102606103ec366004611902565b6108de565b6102dd6108fb565b61040161092d565b60405161022b979695949392919061191b565b61021f6104223660046118d8565b61096f565b61023c610999565b6102605f81565b61021f61044436600461185f565b6109a8565b6102dd6104573660046119b1565b6109b5565b6102dd61046a366004611902565b610b18565b6102dd61047d3660046119d9565b610c1b565b6102607f9f2df0fed2c77648de5860a4cc508cd0818c85b8b8a1ab4ceeef8d981c8956a681565b6102dd6104b73660046118d8565b610d51565b6102606104ca3660046119b1565b6001600160a01b039182165f90815260016020908152604080832093909416825291909152205490565b6102607f65d7a28e3265b37a6474929f336521b332c1681b933f6cb9f3376673440d862a81565b61021f610529366004611902565b6001600160a01b03165f908152600a602052604090205460ff1690565b5f6001600160e01b03198216637965db0b60e01b148061057657506301ffc9a760e01b6001600160e01b03198316145b92915050565b60606003805461058b90611a46565b80601f01602080910402602001604051908101604052809291908181526020018280546105b790611a46565b80156106025780601f106105d957610100808354040283529160200191610602565b820191905f5260205f20905b8154815290600101906020018083116105e557829003601f168201915b5050505050905090565b5f33610619818585610d75565b5060019392505050565b5f33610630858285610d82565b61063b858585610df8565b506001949350505050565b5f8281526009602052604090206001015461066081610e55565b61066a8383610e5f565b50505050565b5f610679610ef0565b905090565b6001600160a01b03811633146106a75760405163334bd91960e11b815260040160405180910390fd5b6106b18282611019565b505050565b7f65d7a28e3265b37a6474929f336521b332c1681b933f6cb9f3376673440d862a6106e081610e55565b6106e8611084565b50565b7f9f2df0fed2c77648de5860a4cc508cd0818c85b8b8a1ab4ceeef8d981c8956a661071581610e55565b6001600160a01b03831661073c5760405163d92e233d60e01b815260040160405180910390fd5b815f0361075c57604051631f2a200560e01b815260040160405180910390fd5b5f61076660025490565b610790907f0000000000000000000000000000000000000000000000000000000000000000611a92565b9050808311156107c25760405163adc3cee560e01b815260048101849052602481018290526044015b60405180910390fd5b6107cc84846110d6565b6001600160a01b038416337fe456f0d575ef17126ead0c00ffd703adb3aa7b837d5b32ae967c707f804fa8678561080260025490565b604080519283526020830191909152015b60405180910390a350505050565b6106e8338261110a565b7f22435ed027edf5f902dc0093fbc24cdb50c05b5fd5f311b78c67c1cbaff60e1361085581610e55565b6001600160a01b03821661087c5760405163d92e233d60e01b815260040160405180910390fd5b6001600160a01b0382165f818152600a6020526040808220805460ff19169055517fedfd4cab3bb8cab50f21bee8952366416fc6dcc47db7e9cc3f7c07aca35569c39190a25050565b6108d0823383610d82565b6108da828261110a565b5050565b6001600160a01b0381165f90815260086020526040812054610576565b7f65d7a28e3265b37a6474929f336521b332c1681b933f6cb9f3376673440d862a61092581610e55565b6106e861113e565b5f6060805f5f5f606061093e61117b565b6109466111a8565b604080515f80825260208201909252600f60f81b9b939a50919850469750309650945092509050565b5f9182526009602090815260408084206001600160a01b0393909316845291905290205460ff1690565b60606004805461058b90611a46565b5f33610619818585610df8565b7f3469b8b0d89e9604f8510ed143f74a8336d22955d4f83e23bf53d9414e27f4326109df81610e55565b6001600160a01b0383165f908152600a602052604090205460ff16610a565760405162461bcd60e51b815260206004820152602760248201527f4f6e6543757272656e63793a206163636f756e74206973206e6f7420626c61636044820152661adb1a5cdd195960ca1b60648201526084016107b9565b6001600160a01b038216610a7d5760405163d92e233d60e01b815260040160405180910390fd5b6001600160a01b0383165f9081526020819052604081205490819003610ab657604051631f2a200560e01b815260040160405180910390fd5b600b805460ff19166001179055610ace848483610df8565b600b805460ff191690556040518181526001600160a01b0384811691908616907f260e3a0af99b390df5505e2c2cd081f104c6678e3dba0231bb935073e37f03b790602001610813565b7f22435ed027edf5f902dc0093fbc24cdb50c05b5fd5f311b78c67c1cbaff60e13610b4281610e55565b6001600160a01b038216610b695760405163d92e233d60e01b815260040160405180910390fd5b610b735f8361096f565b15610bcf5760405162461bcd60e51b815260206004820152602660248201527f4f6e6543757272656e63793a2063616e6e6f7420626c61636b6c69737420616e6044820152651030b236b4b760d11b60648201526084016107b9565b6001600160a01b0382165f818152600a6020526040808220805460ff19166001179055517f571f7b497ee6f6b62bf6238259f34ef72ad585355587cf9feed80bb4a2b5ce939190a25050565b83421115610c3f5760405163313c898160e11b8152600481018590526024016107b9565b5f7f6e71edae12b1b97f4d1f60370fef10105fa2faae0126114a169c64845d6126c9888888610c8a8c6001600160a01b03165f90815260086020526040902080546001810190915590565b6040805160208101969096526001600160a01b0394851690860152929091166060840152608083015260a082015260c0810186905260e0016040516020818303038152906040528051906020012090505f610ce4826111d5565b90505f610cf382878787611201565b9050896001600160a01b0316816001600160a01b031614610d3a576040516325c0072360e11b81526001600160a01b0380831660048301528b1660248201526044016107b9565b610d458a8a8a610d75565b50505050505050505050565b5f82815260096020526040902060010154610d6b81610e55565b61066a8383611019565b6106b1838383600161122d565b6001600160a01b038381165f908152600160209081526040808320938616835292905220545f1981101561066a5781811015610dea57604051637dc7a0d960e11b81526001600160a01b038416600482015260248101829052604481018390526064016107b9565b61066a84848484035f61122d565b6001600160a01b038316610e2157604051634b637e8f60e11b81525f60048201526024016107b9565b6001600160a01b038216610e4a5760405163ec442f0560e01b81525f60048201526024016107b9565b6106b18383836112f1565b6106e8813361138e565b5f610e6a838361096f565b610ee9575f8381526009602090815260408083206001600160a01b03861684529091529020805460ff19166001179055610ea13390565b6001600160a01b0316826001600160a01b0316847f2f8788117e7eff1d82e926ec794901d17c78024a50270940304540a733656f0d60405160405180910390a4506001610576565b505f610576565b5f306001600160a01b037f000000000000000000000000000000000000000000000000000000000000000016148015610f4857507f000000000000000000000000000000000000000000000000000000000000000046145b15610f7257507f000000000000000000000000000000000000000000000000000000000000000090565b610679604080517f8b73c3c69bb8fe3d512ecc4cf759cc79239f7b179b0ffacaa9a75d522b39400f60208201527f0000000000000000000000000000000000000000000000000000000000000000918101919091527f000000000000000000000000000000000000000000000000000000000000000060608201524660808201523060a08201525f9060c00160405160208183030381529060405280519060200120905090565b5f611024838361096f565b15610ee9575f8381526009602090815260408083206001600160a01b0386168085529252808320805460ff1916905551339286917ff6391f5c32d9c69d2a47ea670b442974b53935d1edc7fd64eb21e047a839171b9190a4506001610576565b61108c6113c7565b6005805460ff191690557f5db9ee0a495bf2e6ff9c91a7834c1ba4fdd244a5e8aa4e537bd38aeae4b073aa335b6040516001600160a01b03909116815260200160405180910390a1565b6001600160a01b0382166110ff5760405163ec442f0560e01b81525f60048201526024016107b9565b6108da5f83836112f1565b6001600160a01b03821661113357604051634b637e8f60e11b81525f60048201526024016107b9565b6108da825f836112f1565b6111466113ec565b6005805460ff191660011790557f62e78cea01bee320cd4e420270b5ea74000d11b0c9f74754ebdbfc544b05a2586110b93390565b60606106797f00000000000000000000000000000000000000000000000000000000000000006006611410565b60606106797f00000000000000000000000000000000000000000000000000000000000000006007611410565b5f6105766111e1610ef0565b8360405161190160f01b8152600281019290925260228201526042902090565b5f5f5f5f611211888888886114b9565b9250925092506112218282611581565b50909695505050505050565b6001600160a01b0384166112565760405163e602df0560e01b81525f60048201526024016107b9565b6001600160a01b03831661127f57604051634a1406b160e11b81525f60048201526024016107b9565b6001600160a01b038085165f908152600160209081526040808320938716835292905220829055801561066a57826001600160a01b0316846001600160a01b03167f8c5be1e5ebec7d5bd14f71427d1e84f3dd0314c0f7b2291e5b200ac8c7c3b9258460405161081391815260200190565b600b5460ff16611383576001600160a01b0383165f908152600a602052604090205460ff161561133f5760405163384de18760e21b81526001600160a01b03841660048201526024016107b9565b6001600160a01b0382165f908152600a602052604090205460ff16156113835760405163384de18760e21b81526001600160a01b03831660048201526024016107b9565b6106b1838383611639565b611398828261096f565b6108da5760405163e2517d3f60e01b81526001600160a01b0382166004820152602481018390526044016107b9565b60055460ff166113ea57604051638dfc202b60e01b815260040160405180910390fd5b565b60055460ff16156113ea5760405163d93c066560e01b815260040160405180910390fd5b606060ff831461142a576114238361164c565b9050610576565b81805461143690611a46565b80601f016020809104026020016040519081016040528092919081815260200182805461146290611a46565b80156114ad5780601f10611484576101008083540402835291602001916114ad565b820191905f5260205f20905b81548152906001019060200180831161149057829003601f168201915b50505050509050610576565b5f80807f7fffffffffffffffffffffffffffffff5d576e7357a4501ddfe92f46681b20a08411156114f257505f91506003905082611577565b604080515f808252602082018084528a905260ff891692820192909252606081018790526080810186905260019060a0016020604051602081039080840390855afa158015611543573d5f5f3e3d5ffd5b5050604051601f1901519150506001600160a01b03811661156e57505f925060019150829050611577565b92505f91508190505b9450945094915050565b5f82600381111561159457611594611aa5565b0361159d575050565b60018260038111156115b1576115b1611aa5565b036115cf5760405163f645eedf60e01b815260040160405180910390fd5b60028260038111156115e3576115e3611aa5565b036116045760405163fce698f760e01b8152600481018290526024016107b9565b600382600381111561161857611618611aa5565b036108da576040516335e2f38360e21b8152600481018290526024016107b9565b6116416113ec565b6106b1838383611689565b60605f611658836117af565b6040805160208082528183019092529192505f91906020820181803683375050509182525060208101929092525090565b6001600160a01b0383166116b3578060025f8282546116a89190611ab9565b909155506117239050565b6001600160a01b0383165f90815260208190526040902054818110156117055760405163391434e360e21b81526001600160a01b038516600482015260248101829052604481018390526064016107b9565b6001600160a01b0384165f9081526020819052604090209082900390555b6001600160a01b03821661173f5760028054829003905561175d565b6001600160a01b0382165f9081526020819052604090208054820190555b816001600160a01b0316836001600160a01b03167fddf252ad1be2c89b69c2b068fc378daa952ba7f163c4a11628f55a4df523b3ef836040516117a291815260200190565b60405180910390a3505050565b5f60ff8216601f81111561057657604051632cd44ac360e21b815260040160405180910390fd5b5f602082840312156117e6575f5ffd5b81356001600160e01b0319811681146117fd575f5ffd5b9392505050565b5f81518084528060208401602086015e5f602082860101526020601f19601f83011685010191505092915050565b602081525f6117fd6020830184611804565b80356001600160a01b038116811461185a575f5ffd5b919050565b5f5f60408385031215611870575f5ffd5b61187983611844565b946020939093013593505050565b5f5f5f60608486031215611899575f5ffd5b6118a284611844565b92506118b060208501611844565b929592945050506040919091013590565b5f602082840312156118d1575f5ffd5b5035919050565b5f5f604083850312156118e9575f5ffd5b823591506118f960208401611844565b90509250929050565b5f60208284031215611912575f5ffd5b6117fd82611844565b60ff60f81b8816815260e060208201525f61193960e0830189611804565b828103604084015261194b8189611804565b606084018890526001600160a01b038716608085015260a0840186905283810360c0850152845180825260208087019350909101905f5b818110156119a0578351835260209384019390920191600101611982565b50909b9a5050505050505050505050565b5f5f604083850312156119c2575f5ffd5b6119cb83611844565b91506118f960208401611844565b5f5f5f5f5f5f5f60e0888a0312156119ef575f5ffd5b6119f888611844565b9650611a0660208901611844565b95506040880135945060608801359350608088013560ff81168114611a29575f5ffd5b9699959850939692959460a0840135945060c09093013592915050565b600181811c90821680611a5a57607f821691505b602082108103611a7857634e487b7160e01b5f52602260045260245ffd5b50919050565b634e487b7160e01b5f52601160045260245ffd5b8181038181111561057657610576611a7e565b634e487b7160e01b5f52602160045260245ffd5b8082018082111561057657610576611a7e56fea264697066735822122058aea311ff18c04c3273efe25ff02d1b67d81109efd658c847ee73842f886d4c64736f6c634300081c0033",
  "linkReferences": {},
  "deployedLinkReferences": {},
  "immutableReferences": {
    "4819": [
      {
        "length": 32,
        "start": 3920
      }
    ],
    "4821": [
      {
        "length": 32,
        "start": 3878
      }
    ],
    "4823": [
      {
        "length": 32,
        "start": 3836
      }
    ],
    "4825": [
      {
        "length": 32,
        "start": 4001
      }
    ],
    "4827": [
      {
        "length": 32,
        "start": 4041
      }
    ],
    "4830": [
      {
        "length": 32,
        "start": 4482
      }
    ],
    "4833": [
      {
        "length": 32,
        "start": 4527
      }
    ],
    "8844": [
      {
        "length": 32,
        "start": 755
      },
      {
        "length": 32,
        "start": 1900
      }
    ]
  },
  "inputSourceName": "project/contracts/OneCurrency.sol",
  "buildInfoId": "solc-0_8_28-7cb4257a3c47baaf42a4f6b7143041def1a9d6be"
}